:100000000C9434000C943E000C943E000C943E0082
:100010000C943E000C943E000C943E000C943E0068
:100020000C943E000C943E000C943E000C943E0058
:100030000C943E000C943E000C943E000C943E0048
:100040000C943E000C943E000C943E000C943E0038
:100050000C943E000C943E000C943E000C943E0028
:100060000C943E000C943E0011241FBECFEFD8E04C
:10007000DEBFCDBF0E9440000C9459000C940000DC
:10008000259A389880E680937C0087E880937A00F0
:1000900080917A00806480937A0080917A0086FD56
:1000A000FCCF80917900813810F02D9AF1CF2D98F6
:0600B000EFCFF894FFCF32
:00000001FF
